:060000000A128A11122809
:10000800FE00030EF1000408F2000A08F300831250
:1000180003137F08F4000A128A11A82B0A128A1106
:10002800642E83120313BA002C30B0003008B300DA
:10003800B7293D08253A0319222823282F283D08E7
:10004800B0003A0884003008831380000130B00003
:100058003008BA07B729BB01BC01B4013B283B28CB
:1000680034150130B0003008AB073B2848282B086E
:1000780084000A128A1194240A128A11303A031948
:100088003428482848283B282B0884000A128A115B
:1000980094240A128A110A128A110F260A128A1146
:1000A800031C57285828A72883120313BB01BC0137
:1000B8005D28831203133C08A101A1073B08A00196
:1000C800A0070A30A2000030A3000A128A11CC252A
:1000D8000A128A11831203132B0884000A128A1148
:1000E80094240A128A112007B00000300318013046
:1000F8002107B1003008D03EBB0031080318013E8B
:10010800FF3EBC000130B0003008AB072B0884006C
:100118000A128A1194240A128A110A128A110F26C5
:100128000A128A11031899289A285D28A728A7284F
:10013800A728CD29B729C03083120313B00030088F
:10014800B404BB28BB28013083120313AB07FF306C
:100158002B0784000A128A1194240A128A11BD00FE
:10016800003A0319CD29753A03199F28B72933088E
:10017800840083130008B500840A0008B600023022
:10018800B0003008B307BD010314BD0D3D08053AA2
:10019800031DCF28D028D228FA28FA283D08B00015
:1001A8003007013E84000A128A1194240A128A1127
:1001B800B1000A128A1194240A128A11B200320874
:1001C8003602031DE928310835020318EC28ED280A
:1001D800EF28FA28FA280130B0003008BD073D089A
:1001E800053A031DF828F928D228FA283D08B00056
:1001F800B101B01BB1033108803AB2003C08803A23
:100208003202031D09293B08300203180C290D2965
:100218001B29831203133D08B000B101B01BB103C1
:100228003008BB023108031CBC03BC02202983121E
:100238000313BB01BC012029341D23292429452986
:100248003C083B04031929292A2966292B2930301F
:10025800B0003A0884003008831380000130B000F1
:100268003008BA07FF30BB070318BC0AFF30BC07C9
:100278003C083B04031D412942292B29662966298C
:1002880066293C083B0403194A294B2966294C294D
:100298002030B0003A088400300883138000013011
:1002A800B0003008BA07FF30BB070318BC0AFF309C
:1002B800BC073C083B04031D622963294C296629B5
:1002C800662966293D08B0003008B900AB290A3014
:1002D800A7000030A8003908B0003007013E8400AC
:1002E8000A128A1194240A128A11A0000A128A1189
:1002F80094240A128A11A1003608A301A30735081D
:10030800A201A2070A128A1158230A128A1183121B
:1003180003132108AA01AA072008A901A9070A129C
:100328008A1144240A128A11831203132708303EC3
:10033800B1003108BD003D08B0003A08840030081B
:10034800831380000130B0003008BA07AB29FF30B2
:10035800B0003008B9073908FF3A031DB429B52998
:100368006B29B729B729013083120313AB07FF3074
:100378002B0784000A128A1194240A128A11B000E9
:100388003008BD00BD08031DCA29CB291D28CD2969
:10039800CD29831203133A08840083138001D429DA
:1003A800080083120313881DDA29DB29F22978193A
:1003B800DE29DF29F229D408003003190130F500BD
:1003C8007508D4005508031DEA29F229D5010A1237
:1003D8008A116E260A128A11F229F22978118312DB
:1003E8000313881DF829781583120313881AFD2929
:1003F800FE291C2A781A012A022A1C2AD50800304C
:1004080003190130F5007508D5005508031D0D2A9C
:10041800152A061086100A128A1157260A128A11FE
:100428001C2A0A128A116E260A128A111C2A1C2AF0
:10043800781283120313881E222A78168312031354
:10044800081E272A282A312AF8192B2A2C2A312A69
:10045800D101D20106108610312AF811081E352A5A
:10046800F815831203135408013A031D3C2A3D2A48
:10047800722AD508031D412A422A722A881F452A52
:10048800462A5B2AF818492A4A2A5B2A1730520258
:100498003430031951020318522A532A5B2A0130B7
:1004A800D1070318D20A0030D2075B2A5B2A081F3B
:1004B8005E2A5F2A722A7818622A632A722A5208E8
:1004C80051040319682A692A722A0130D1020030BE
:1004D800031CD203D202722A722A722AF810881FC9
:1004E800762AF814781083120313081F7C2A7814CC
:1004F8000800831603138601343083120313A20005
:10050800F130A100A10B862AA20B862A8B2A0F3074
:1005180083120313A100210886053030A1002108A9
:1005280086040A128A1136260A128A1107308312A3
:100538000313A2007D30A100A10BA02AA20BA02AC0
:100548000A128A1136260A128A11313083120313CD
:10055800A100A10BAD2AB02A0A128A1136260A1266
:100568008A11103083120313A100A10BB92A640069
:100578000F3083120313A1002108860586160A127C
:100588008A1136260A128A11103083120313A10029
:10059800A10BCC2A640028300A128A1173250A128A
:1005A8008A11103083120313A100A10BD92A640009
:1005B8000C300A128A1173250A128A11103083121C
:1005C8000313A100A10BE62A640001300A128A1164
:1005D80073250A128A11033083120313A20097307D
:1005E800A100A10BF52AA20BF52AFA2A06300A1255
:1005F8008A1173250A128A11103083120313A1007D
:10060800A10B042B640008003C3083120313A000E4
:100618000030A1003F08A301A3073E08A201A207DA
:100628000A128A1158230A128A1183120313200806
:10063800C0004008CD003C30A7000030A8003F08AB
:10064800AA01AA073E08A901A9070A128A11442487
:100658000A128A11831203132708C0004008CE002B
:100668002730C0004008AB004D08C100C201410856
:10067800AC004208AD004E08C300C4014308AE00F8
:100688004408AF0045300A128A1115200A128A114F
:10069800453083120313A4000030A5000A128A1102
:1006A800A0250A128A11080083120313A501A601C6
:1006B800210820040319612B622BA02BA401031429
:1006C800A40D722B01300310A00DA10DFF3E031DD8
:1006D800672B0130F5007508A407722BA11F752B35
:1006E800762B662B782B782B01300310A50DA60DE1
:1006F800FF3E031D792B21082302031D852B2008AB
:100708002202031C882B892B912B2008A202210886
:10071800031CA303A3022514912B01300310A10C81
:10072800A00CFF3E031D922B0130A402031D9D2B3C
:100738009E2B782BA02BA02B2608A101A10725080A
:10074800A001A007A72B08000C1CAB2BAC2BEC2B93
:100758000C100130F0007008D30702305302031C5C
:10076800B62BB72BEC2BD3015508031DBC2BEC2B58
:10077800D408031DC02BC12BD22B273052020F30B7
:10078800031951020318C92BCA2BEC2B0130D107CE
:100798000318D20A0030D207EC2BEC2B5208510474
:1007A8000319D72BD82BEC2B0130D1020030031CB6
:1007B800D203D20252085104031DE32BE42BEC2B85
:1007C80006148614EC2BEC2BEC2BEC2BEC2BEC2BE3
:1007D8007408FF0073088A0072088400710E830091
:1007E800FE0E7E0E090000300A128A1124260A1213
:1007F8008A1183120313D408031D032C042C0E2C16
:100808001930A4008030A5000A128A11A0250A1206
:100818008A111A2C0B3083120313A4008030A50010
:100828000A128A11A0250A128A111A2C40300A12BB
:100838008A1124260A128A11143083120313A40081
:100848008030A5000A128A11A0250A128A11831283
:1008580003135208BF01BF075108BE01BE070A12A1
:100868008A1108230A128A11143083120313A40070
:100878008030A5000A128A11A0250A128A110800E0
:10088800831203132808270403194B2C4C2C822CA1
:10089800F7010314F70D5C2C01300310A70DA80D08
:1008A800FF3E031D512C0130F6007608F7075C2C3B
:1008B800A81F5F2C602C502C622C622C28082A025E
:1008C800031D682C27082902031C6B2C6C2C732C25
:1008D8002708A9022808031CAA03AA02732C0130BE
:1008E8000310A80CA70CFF3E031D742C0130F7025F
:1008F800031D7F2C802C622C822C822C2A08A801B4
:10090800A8072908A701A707892C0800FF1B942C12
:1009180083137F1883170008840A0319FF0A080045
:1009280004308A000408840A820700340134003441
:100938000A34003464340034E8340334103427347F
:10094800543449344D34453452342034203420341E
:1009580020342034203420342034003453345434A8
:100968004F345034573441345434433448342034A9
:100978002034203420340034253430343234753473
:100988003A3425343034323475340034F830831630
:1009980003138500F0308600FF30880006309F0082
:1009A80083120313D101D201D401D501D3010A1254
:1009B8008A117D220A128A110A128A11F8250A124E
:1009C8008A118312031306108610EA2C0A128A1160
:1009D800D5210A128A110A128A11F7230A128A11DA
:1009E800413083120313D000EE30CF00CF0BFA2C26
:1009F800D00BFA2C6400EA2CEA2C0A128A1112286D
:100A0800F03083160313860083120313851005152F
:100A180005140E2D0F2D6400831203130608F039F8
:100A2800F5007508F7000510192D1A2D64008312BA
:100A3800031305141F2D202D6400831203130608C9
:100A4800F50004300310F50CFF3E031D262D750834
:100A58000F39F6007608F704051005110D30F5007A
:100A6800F50B342D83160313860177083B2D0800F8
:100A780083120313A3000A128A1147260A128A1145
:100A880083120313851405110F30A1002108860570
:100A98002308F039A100210886040A128A11362693
:100AA8000A128A110F3083120313A1002108860548
:100AB8002308A10003300310A10DFF3E031D5F2D85
:100AC8000310210DF039A200220886040A128A11A7
:100AD80036260A128A11831203138510080083121E
:100AE8000313A000851005110F30F600760886055F
:100AF8002008F039F600760886040A128A1136268C
:100B08000A128A110F30F60076088312031386053D
:100B18002008F60003300310F60DFF3E031D8F2D4D
:100B28000310760DF039F700770886040A128A1147
:100B380036260A128A110800BA2D831203132508D3
:100B4800FF00240884000A128A118A240A128A11D2
:100B58000A128A113C250A128A11013083120313E2
:100B6800A4070318A50A0030A507BA2D831203139A
:100B78002508FF00240884000A128A118A240A1210
:100B88008A110038031DC92DCA2DA12DCB2D0800AF
:100B9800F501F601CF2D83120313201CD42DD52D7A
:100BA800DB2D2208F5070318F60A2308F60701309B
:100BB8000310A20DA30DFF3E031DDC2D0130031011
:100BC800A10CA00CFF3E031DE32D21082004031DEA
:100BD800EE2DEF2DCF2DF02D7608A101A107750878
:100BE800A001A007F72D08000A128A1147260A1249
:100BF8008A1101300A128A1173250A128A110330E8
:100C080083120313A2009730A100A10B092EA20B97
:100C1800092E0E2E0800F600F5013A307602031868
:100C2800162E172E212E30307602031C1C2E1D2E58
:100C3800212EF5010314F50D212E750C232E080025
:100C480083120313A1000A128A1147260A128A1175
:100C580083120313210880380A128A1173250A1295
:100C68008A110800831203130514A630F500F50B4A
:100C78003B2E6400831203130510A630F500F50B14
:100C8800432E64000800492E492E0A128A110425B1
:100C98000A128A1183120313A000A01B542E552E8A
:100CA800492E562E0800831203138F018E0131300E
:100CB80090000C10831603130C140B178B170800E5
:100CC800F801D101D201D301D401D50183010A125F
:100CD8008A11CA2C831203131010831603130C10E5
:020CE800080002
:02400E0071FF40
:00000001FF
